{
  "contractName": "USElection",
  "abi": [
    {
      "anonymous": false,
      "inputs": [
        {
          "indexed": false,
          "internalType": "uint256",
          "name": "winner",
          "type": "uint256"
        }
      ],
      "name": "LogElectionEnded",
      "type": "event"
    },
    {
      "anonymous": false,
      "inputs": [
        {
          "indexed": false,
          "internalType": "uint8",
          "name": "winner",
          "type": "uint8"
        },
        {
          "indexed": false,
          "internalType": "uint8",
          "name": "stateSeats",
          "type": "uint8"
        },
        {
          "indexed": false,
          "internalType": "string",
          "name": "state",
          "type": "string"
        }
      ],
      "name": "LogStateResult",
      "type": "event"
    },
    {
      "anonymous": false,
      "inputs": [
        {
          "indexed": true,
          "internalType": "address",
          "name": "previousOwner",
          "type": "address"
        },
        {
          "indexed": true,
          "internalType": "address",
          "name": "newOwner",
          "type": "address"
        }
      ],
      "name": "OwnershipTransferred",
      "type": "event"
    },
    {
      "inputs": [],
      "name": "BIDEN",
      "outputs": [
        {
          "internalType": "uint8",
          "name": "",
          "type": "uint8"
        }
      ],
      "stateMutability": "view",
      "type": "function"
    },
    {
      "inputs": [],
      "name": "TRUMP",
      "outputs": [
        {
          "internalType": "uint8",
          "name": "",
          "type": "uint8"
        }
      ],
      "stateMutability": "view",
      "type": "function"
    },
    {
      "inputs": [],
      "name": "electionEnded",
      "outputs": [
        {
          "internalType": "bool",
          "name": "",
          "type": "bool"
        }
      ],
      "stateMutability": "view",
      "type": "function"
    },
    {
      "inputs": [],
      "name": "owner",
      "outputs": [
        {
          "internalType": "address",
          "name": "",
          "type": "address"
        }
      ],
      "stateMutability": "view",
      "type": "function"
    },
    {
      "inputs": [],
      "name": "renounceOwnership",
      "outputs": [],
      "stateMutability": "nonpayable",
      "type": "function"
    },
    {
      "inputs": [
        {
          "internalType": "string",
          "name": "",
          "type": "string"
        }
      ],
      "name": "resultsSubmitted",
      "outputs": [
        {
          "internalType": "bool",
          "name": "",
          "type": "bool"
        }
      ],
      "stateMutability": "view",
      "type": "function"
    },
    {
      "inputs": [
        {
          "internalType": "uint8",
          "name": "",
          "type": "uint8"
        }
      ],
      "name": "seats",
      "outputs": [
        {
          "internalType": "uint8",
          "name": "",
          "type": "uint8"
        }
      ],
      "stateMutability": "view",
      "type": "function"
    },
    {
      "inputs": [
        {
          "internalType": "address",
          "name": "newOwner",
          "type": "address"
        }
      ],
      "name": "transferOwnership",
      "outputs": [],
      "stateMutability": "nonpayable",
      "type": "function"
    },
    {
      "inputs": [
        {
          "components": [
            {
              "internalType": "string",
              "name": "name",
              "type": "string"
            },
            {
              "internalType": "uint256",
              "name": "votesBiden",
              "type": "uint256"
            },
            {
              "internalType": "uint256",
              "name": "votesTrump",
              "type": "uint256"
            },
            {
              "internalType": "uint8",
              "name": "stateSeats",
              "type": "uint8"
            }
          ],
          "internalType": "struct USElection.StateResult",
          "name": "result",
          "type": "tuple"
        }
      ],
      "name": "submitStateResult",
      "outputs": [],
      "stateMutability": "nonpayable",
      "type": "function"
    },
    {
      "inputs": [],
      "name": "currentLeader",
      "outputs": [
        {
          "internalType": "uint8",
          "name": "",
          "type": "uint8"
        }
      ],
      "stateMutability": "view",
      "type": "function"
    },
    {
      "inputs": [],
      "name": "endElection",
      "outputs": [],
      "stateMutability": "nonpayable",
      "type": "function"
    }
  ],
  "bytecode": "0x608060405234801561001057600080fd5b5060006100216100c460201b60201c565b9050806000806101000a81548173ffffffffffffffffffffffffffffffffffffffff021916908373ffffffffffffffffffffffffffffffffffffffff1602179055508073ffffffffffffffffffffffffffffffffffffffff16600073ffffffffffffffffffffffffffffffffffffffff167f8be0079c531659141344cd1fd0a4f28419497f9722a3daafe3b4186f6b6457e060405160405180910390a3506100cc565b600033905090565b611102806100db6000396000f3fe608060405234801561001057600080fd5b50600436106100a95760003560e01c8063715018a611610071578063715018a6146101545780638da5cb5b1461015e578063ac4bd53a1461017c578063c94ca9e31461019a578063e494a883146101b8578063f2fde38b146101d4576100a9565b80632d78d8e5146100ae57806337ad98ec146100cc57806359f78468146100fc57806369b36bd414610106578063713d87c514610124575b600080fd5b6100b66101f0565b6040516100c39190610ef4565b60405180910390f35b6100e660048036038101906100e19190610aaf565b6101f5565b6040516100f39190610dfe565b60405180910390f35b61010461022b565b005b61010e6102d6565b60405161011b9190610ef4565b60405180910390f35b61013e60048036038101906101399190610b31565b6102db565b60405161014b9190610ef4565b60405180910390f35b61015c6102fb565b005b61016661044e565b6040516101739190610de3565b60405180910390f35b610184610477565b6040516101919190610ef4565b60405180910390f35b6101a261054b565b6040516101af9190610dfe565b60405180910390f35b6101d260048036038101906101cd9190610af0565b61055e565b005b6101ee60048036038101906101e99190610a86565b61079d565b005b600281565b6002818051602081018201805184825260208301602085012081835280955050505050506000915054906101000a900460ff1681565b600060149054906101000a900460ff161561027b576040517f08c379a000000000000000000000000000000000000000000000000000000000815260040161027290610e39565b60405180910390fd5b6001600060146101000a81548160ff0219169083151502179055507faacb23683ec1a0e9b52f9a6264edf58ad322ac62079d65ea7363a2d400f439f46102bf610477565b6040516102cc9190610ed9565b60405180910390a1565b600181565b60016020528060005260406000206000915054906101000a900460ff1681565b61030361095f565b73ffffffffffffffffffffffffffffffffffffffff1660008054906101000a900473ffffffffffffffffffffffffffffffffffffffff1673ffffffffffffffffffffffffffffffffffffffff1614610390576040517f08c379a000000000000000000000000000000000000000000000000000000000815260040161038790610eb9565b60405180910390fd5b600073ffffffffffffffffffffffffffffffffffffffff1660008054906101000a900473ffffffffffffffffffffffffffffffffffffffff1673ffffffffffffffffffffffffffffffffffffffff167f8be0079c531659141344cd1fd0a4f28419497f9722a3daafe3b4186f6b6457e060405160405180910390a360008060006101000a81548173ffffffffffffffffffffffffffffffffffffffff021916908373ffffffffffffffffffffffffffffffffffffffff160217905550565b60008060009054906101000a900473ffffffffffffffffffffffffffffffffffffffff16905090565b600060016000600260ff1660ff16815260200190815260200160002060009054906101000a900460ff1660ff1660016000600160ff1660ff16815260200190815260200160002060009054906101000a900460ff1660ff1611156104de5760019050610548565b60016000600160ff1660ff16815260200190815260200160002060009054906101000a900460ff1660ff1660016000600260ff1660ff16815260200190815260200160002060009054906101000a900460ff1660ff1611156105435760029050610548565b600090505b90565b600060149054906101000a900460ff1681565b600060149054906101000a900460ff16156105ae576040517f08c379a00000000000000000000000000000000000000000000000000000000081526004016105a590610e39565b60405180910390fd5b6000816060015160ff16116105f8576040517f08c379a00000000000000000000000000000000000000000000000000000000081526004016105ef90610e99565b60405180910390fd5b806040015181602001511415610643576040517f08c379a000000000000000000000000000000000000000000000000000000000815260040161063a90610e79565b60405180910390fd5b600281600001516040516106579190610dcc565b908152602001604051809103902060009054906101000a900460ff16156106b3576040517f08c379a00000000000000000000000000000000000000000000000000000000081526004016106aa90610e19565b60405180910390fd5b60008160400151826020015111156106ce57600190506106d3565b600290505b8160600151600160008360ff1660ff16815260200190815260200160002060008282829054906101000a900460ff160192506101000a81548160ff021916908360ff1602179055506001600283600001516040516107319190610dcc565b908152602001604051809103902060006101000a81548160ff0219169083151502179055507fa2e71fe38f1afa3762cf9d2ea7bb6a4d272a90fd6f9392f3acedd3b542046b46818360600151846000015160405161079193929190610f0f565b60405180910390a15050565b6107a561095f565b73ffffffffffffffffffffffffffffffffffffffff1660008054906101000a900473ffffffffffffffffffffffffffffffffffffffff1673ffffffffffffffffffffffffffffffffffffffff1614610832576040517f08c379a000000000000000000000000000000000000000000000000000000000815260040161082990610eb9565b60405180910390fd5b600073ffffffffffffffffffffffffffffffffffffffff168173ffffffffffffffffffffffffffffffffffffffff1614156108a2576040517f08c379a000000000000000000000000000000000000000000000000000000000815260040161089990610e59565b60405180910390fd5b8073ffffffffffffffffffffffffffffffffffffffff1660008054906101000a900473ffffffffffffffffffffffffffffffffffffffff1673ffffffffffffffffffffffffffffffffffffffff167f8be0079c531659141344cd1fd0a4f28419497f9722a3daafe3b4186f6b6457e060405160405180910390a3806000806101000a81548173ffffffffffffffffffffffffffffffffffffffff021916908373ffffffffffffffffffffffffffffffffffffffff16021790555050565b600033905090565b60008135905061097681611087565b92915050565b600082601f83011261098d57600080fd5b81356109a061099b82610f7a565b610f4d565b915080825260208301602083018583830111156109bc57600080fd5b6109c7838284611034565b50505092915050565b6000608082840312156109e257600080fd5b6109ec6080610f4d565b9050600082013567ffffffffffffffff811115610a0857600080fd5b610a148482850161097c565b6000830152506020610a2884828501610a5c565b6020830152506040610a3c84828501610a5c565b6040830152506060610a5084828501610a71565b60608301525092915050565b600081359050610a6b8161109e565b92915050565b600081359050610a80816110b5565b92915050565b600060208284031215610a9857600080fd5b6000610aa684828501610967565b91505092915050565b600060208284031215610ac157600080fd5b600082013567ffffffffffffffff811115610adb57600080fd5b610ae78482850161097c565b91505092915050565b600060208284031215610b0257600080fd5b600082013567ffffffffffffffff811115610b1c57600080fd5b610b28848285016109d0565b91505092915050565b600060208284031215610b4357600080fd5b6000610b5184828501610a71565b91505092915050565b610b6381610fcd565b82525050565b610b7281610fdf565b82525050565b6000610b8382610fa6565b610b8d8185610fb1565b9350610b9d818560208601611043565b610ba681611076565b840191505092915050565b6000610bbc82610fa6565b610bc68185610fc2565b9350610bd6818560208601611043565b80840191505092915050565b6000610bef602883610fb1565b91507f5468697320737461746520726573756c742077617320616c726561647920737560008301527f626d6974746564210000000000000000000000000000000000000000000000006020830152604082019050919050565b6000610c55601e83610fb1565b91507f54686520656c656374696f6e2068617320656e64656420616c726561647900006000830152602082019050919050565b6000610c95602683610fb1565b91507f4f776e61626c653a206e6577206f776e657220697320746865207a65726f206160008301527f64647265737300000000000000000000000000000000000000000000000000006020830152604082019050919050565b6000610cfb601583610fb1565b91507f54686572652063616e6e6f7420626520612074696500000000000000000000006000830152602082019050919050565b6000610d3b602083610fb1565b91507f537461746573206d7573742068617665206174206c65617374203120736561746000830152602082019050919050565b6000610d7b602083610fb1565b91507f4f776e61626c653a2063616c6c6572206973206e6f7420746865206f776e65726000830152602082019050919050565b610db781611022565b82525050565b610dc681611015565b82525050565b6000610dd88284610bb1565b915081905092915050565b6000602082019050610df86000830184610b5a565b92915050565b6000602082019050610e136000830184610b69565b92915050565b60006020820190508181036000830152610e3281610be2565b9050919050565b60006020820190508181036000830152610e5281610c48565b9050919050565b60006020820190508181036000830152610e7281610c88565b9050919050565b60006020820190508181036000830152610e9281610cee565b9050919050565b60006020820190508181036000830152610eb281610d2e565b9050919050565b60006020820190508181036000830152610ed281610d6e565b9050919050565b6000602082019050610eee6000830184610dae565b92915050565b6000602082019050610f096000830184610dbd565b92915050565b6000606082019050610f246000830186610dbd565b610f316020830185610dbd565b8181036040830152610f438184610b78565b9050949350505050565b6000604051905081810181811067ffffffffffffffff82111715610f7057600080fd5b8060405250919050565b600067ffffffffffffffff821115610f9157600080fd5b601f19601f8301169050602081019050919050565b600081519050919050565b600082825260208201905092915050565b600081905092915050565b6000610fd882610feb565b9050919050565b60008115159050919050565b600073ffffffffffffffffffffffffffffffffffffffff82169050919050565b6000819050919050565b600060ff82169050919050565b600061102d82611015565b9050919050565b82818337600083830152505050565b60005b83811015611061578082015181840152602081019050611046565b83811115611070576000848401525b50505050565b6000601f19601f8301169050919050565b61109081610fcd565b811461109b57600080fd5b50565b6110a78161100b565b81146110b257600080fd5b50565b6110be81611015565b81146110c957600080fd5b5056fea2646970667358221220af50f80bc19cbaa46acb11288094f9ab6f3eee8475074de7251c70d04961480464736f6c63430007010033",
  "source": "// SPDX-License-Identifier: UNLICENSED\npragma solidity ^0.7.0;\npragma experimental ABIEncoderV2;\nimport \"@openzeppelin/contracts/access/Ownable.sol\";\n\ncontract USElection is Ownable {\n    event LogStateResult(uint8 winner, uint8 stateSeats, string state);\n    event LogElectionEnded(uint winner);\n    modifier onlyActiveElection() {\n      require(!electionEnded, \"The election has ended already\");\n       _;\n    }\n    uint8 public constant BIDEN = 1;\n    uint8 public constant TRUMP = 2;\n    bool public electionEnded;\n    mapping(uint8 => uint8) public seats;\n    mapping(string => bool) public resultsSubmitted;\n    struct StateResult {\n        string name;\n        uint votesBiden;\n        uint votesTrump;\n        uint8 stateSeats;\n    }\n   function submitStateResult(StateResult memory result) public onlyActiveElection {\n        require(result.stateSeats > 0, \"States must have at least 1 seat\");\n        require(result.votesBiden != result.votesTrump, \"There cannot be a tie\");\n        require(!resultsSubmitted[result.name], \"This state result was already submitted!\");\n        uint8 winner;\n        if(result.votesBiden > result.votesTrump) {\n            winner = BIDEN;\n        } else {\n            winner = TRUMP;\n        }\n        seats[winner] += result.stateSeats;\n        resultsSubmitted[result.name] = true;\n        emit LogStateResult(winner, result.stateSeats, result.name);\n    }\n   function currentLeader() public view returns(uint8) {\n            if(seats[BIDEN] > seats[TRUMP]) {\n                return BIDEN;\n            }\n            if(seats[TRUMP] > seats[BIDEN]) {\n                return TRUMP;\n            }\n            return 0;\n        }\n    function endElection() public onlyActiveElection {\n        electionEnded = true;\n        emit LogElectionEnded(currentLeader());\n    }\n}\n",
  "sourcePath": "/Users/ognyanchikov/Projects/Library - course/contracts/USElection.sol",
  "compiler": {
    "name": "solc",
    "version": "0.7.1+commit.f4a555be.Emscripten.clang",
    "optimizer": false,
    "runs": 200
  },
  "schemaVersion": "2.3.3",
  "updatedAt": "2021-01-24T14:34:39.950Z"
}